:1000000000800020BD010000152F0000CD2E000053
:10001000CD2E0000CD2E0000CD2E0000CD2E0000F4
:10002000CD2E0000CD2E0000CD2E0000152F00009B
:10003000152F0000CD2E0000DD1C0000691C000003
:10004000152F0000152F0000152F0000152F0000A0
:10005000152F0000152F0000152F0000152F000090
:10006000152F0000152F0000152F0000152F000080
:10007000152F0000152F0000152F0000152F000070
:10008000152F0000152F0000152F0000152F000060
:10009000152F0000152F0000152F0000152F000050
:1000A000152F0000152F0000152F0000152F000040
:1000B000152F0000152F0000152F0000152F000030
:1000C000152F0000152F0000152F0000152F000020
:1000D000152F0000152F0000152F0000152F000010
:1000E000152F0000152F0000152F0000152F000000
:1000F000152F0000D12D0000152F0000950B0000DA
:10010000152F0000F90A0000152F0000152F000020
:10011000152F0000152F0000152F0000152F0000CF
:10012000152F0000152F0000152F0000152F0000BF
:10013000152F0000152F0000152F0000152F0000AF
:10014000152F0000152F0000152F0000152F00009F
:10015000152F0000152F0000152F0000152F00008F
:10016000152F0000690D0000152F0000152F00004D
:10017000152F0000152F0000152F0000152F00006F
:10018000152F0000152F0000152F0000152F00005F
:10019000152F0000152F0000152F0000152F00004F
:1001A000152F0000152F0000152F0000152F00003F
:1001B000152F0000152F0000152F000008B55B4B10
:1001C0004CF220521A804DF628121A8000BF00BF50
:1001D000102223F80E2CA3F51F43DE3B4FF01062D4
:1001E0001A60534A9A60534ADA60534A136813F408
:1001F000807304D151490B604FF4A8531360504BE6
:100200001A78100703D51A7842F008021A704D4B7D
:100210004D492A221A704D4A4D4B8B4204D252F856
:10022000040F43F8040BF8E74A4B4B4900228B427A
:1002300002D243F8042BFAE74849494A002352F80E
:10024000230041F8230001336F2BF8D1454B464A78
:10025000802103F8011B9342FBD1444B3F4A1A60B3
:10026000434B8A221A70A3F5805324225A70A0228D
:100270001A709A799107FCD59A79D206FCD43D4A36
:10028000937903F00C03082B3A4BF9D105221A712C
:1002900043225A719A799406FCD5364A9179354BA6
:1002A0004806FBD5344A4FF0817111600521516039
:1002B00020221A709A7902F00C020C2AFAD12F4BE4
:1002C0002F4A1A602F4B304A1A60002407225C60C4
:1002D00043F8042C2D4AC3F80C2D62B602F0A2FF9D
:1002E000164B1A68D1070AD5294A2A491C6014609E
:1002F00042F8041C10221A60274A28491160284A33
:10030000127852060ED52449244A0868904209D131
:100310001F48204C00221A60026040F8044C102054
:1003200018600A6003F0A0F900F0A0F80E20054064
:10033000823F04000100002B10D0034014D0034082
:1003400002D0074000E00740348CFF1F903C0000C3
:100350002087FF1F348CFF1F8C8FFF1F0082FF1F21
:100360000000000000E400E05FE400E008ED00E0D1
:100370000050064000400640448004400480044091
:10038000C010050014E000E03F190100000020202B
:1003900004D00340351ACC5D1CE00340A5C3945A39
:1003A00000F00740FFFFFFFFFFFFFFFFFFFFFFFF22
:1003B000FFFFFFFFFFFFFFFFFFFFFFFFFFFFFFFF4D
:1003C000FFFFFFFFFFFFFFFFFFFFFFFFFFFFFFFF3D
:1003D000FFFFFFFFFFFFFFFFFFFFFFFFFFFFFFFF2D
:1003E000FFFFFFFFFFFFFFFFFFFFFFFFFFFFFFFF1D
:1003F000FFFFFFFFFFFFFFFFFFFFFFFFFFFFFFFF0D
:10040000FFFFFFFFFFFFFFFFFFFFFFFFDEF9FFFF23
:1004100010B5054C237833B9044B13B10448AFF33E
:1004200000800123237010BD348CFF1F00000000EA
:10043000943C0000084B10B51BB108490848AFF3C5
:1004400000800848036803B910BD074B002BFBD0A0
:10045000BDE81040184700BF00000000388CFF1FA7
:10046000943C0000348CFF1F000000002DE9804800
:10047000C82087B002F086FE0B22B649B648B74FB7
:10048000B74CB84EDFF81CB302F07AF9B24802F06C
:100490009FFB0025B44B3B6041F64C50BD8002F001
:1004A00069FD284602F03AFD0D2318460121FB8024
:1004B00002F052FFAD4BFB603B61642002F062FE34
:1004C00041F6C81240F20171387A01F03BFE012179
:1004D0000B2002F041FFAA464FF01B094FF00A081B
:1004E0000221484602F038FF059821686560A4F8AB
:1004F000088084F80B90A572E060096859451FD107
:10050000B9F1210F0CD89A4B53F8392092F8000218
:10051000003018BF012018B1A27A42F00302A27283
:10052000944B196800910AF1010A32220099616026
:10053000BAF1060F228106D0103416F8019FCFE7DA
:1005400020468847E7E7844D0DF10F062B6A062BFE
:1005500000F24C81DFE813F02801C600A2004A0136
:1005600097003500070001210B207B4C02F0E8FDCD
:100570000E21814801F03CF9204602F029FB4FF49E
:10058000167002F0FFFD02F033FB0369012B00F04F
:100590004F81C268012A00F08A810168002940F079
:1005A0003481002A00F0CB81426812B9002B00F0A0
:1005B00022810F21714801F01BF9674802F008FB06
:1005C00069E0042240F20671387A01F0BBFD002494
:1005D000B7F808C06A488DF808C04FF0030E06222D
:1005E000012308218DF809E08DF80B208DF80D30DE
:1005F000ADF80440ADF806408DF80C408DF80A10B7
:1006000002F0E6FA0A215F4802F058FF02215E4834
:1006100002F054FF224610219DF8080001F0BCFBB7
:1006200002AC0221594802F049FF0221564802F06B
:1006300045FF14F8010F0022102101F0ADFBA64286
:10064000EFD10121524802F039FF4D4802F0C0FAC3
:1006500002A801F01DFD002803DB02A901A801F09A
:1006600093FDBDF90430002BB8BF5B42432B40F330
:100670002A8105232B620821464801F0B9F8364843
:1006800002F0A6FA07E0002240F20671387A01F083
:1006900059FD02F019FB01F0DDFD57E7BB7A387A0E
:1006A000002B0CBF0222012240F2067101F04AFD2C
:1006B00002F09EFA8368012B00F0C7804369012B8A
:1006C00000F0C3800369012B00F04C814368012BCB
:1006D00000F02B810721304801F08AF81E4802F013
:1006E00077FAD8E7DFF8708002F0EEFA14212B4891
:1006F00001F07EF8404602F06BFA02F079FA044607
:100700000A2002F03FFDA368012B00F0B28063696C
:10071000012B00F0AE802369012B00F0E280E2683B
:10072000012A00F0EB802168002940F0AC80002A0B
:1007300000F02A816268002AADD1002BABD10623DC
:10074000012117482B6201F053F8034802F040FAE8
:10075000A1E700BF243900002087FF1FA08EFF1FE4
:10076000508CFF1F803800003087FF1F00007A4444
:10077000803A0000708EFF1F84390000CC390000E1
:10078000EC87FF1FDC3900003C3C0000EC39000026
:10079000E83900000C3A00007C39000030390000D4
:1007A00054390000D9250000BB7A387A002B0CBFE1
:1007B0000122022240F2067101F0C4FC02F018FA94
:1007C0008368012B4BD04369012B48D0C368012BB0
:1007D00000F0BE800368012B00F09D8007217F4858
:1007E00001F006F87E4802F0F3F954E712217D4843
:1007F00000F0FEFF4FE7022307217B482B6200F049
:10080000F7FF774802F0E4F9D3E64268002A3FF4A4
:10081000CDAE01297FF4CDAE012A7FF4CAAE072107
:100820007248226200F0E4FF204602F0D1F9C0E6EF
:1008300002680721002A00F09F806D48236200F0C3
:10084000D7FF204602F0C4F9B3E604230521694826
:100850002B6200F0CDFF624802F0BAF93AE70423B8
:10086000052164482B6200F0C3FF5D4802F0B0F937
:10087000B4E70423012160482B6200F0B9FF584817
:1008800002F0A6F907E76268002A3FF456AF012993
:100890007FF401AF012A7FF4FEAE11465748C8F835
:1008A000202000F0A5FF404602F092F9F3E64368ED
:1008B000002B74D007215248226200F099FF204695
:1008C00002F086F975E64FF4167002F05BFC012326
:1008D00018214C482B6200F08BFF414802F078F958
:1008E000C9E622681946002A63D04748C8F8203074
:1008F00000F07EFF404602F06BF9CCE663681146DB
:10090000002B60D04148C8F8202000F071FF40461D
:1009100002F05EF9BFE6052319463D482B6200F060
:1009200067FF2F4802F054F958E705231946384865
:100930002B6200F05DFF2A4802F04AF9CAE607215F
:100940003448226200F054FF204602F041F930E6BC
:100950000523194630482B6200F04AFF204802F078
:1009600037F93BE7052319462B482B6200F040FF7F
:100970001B4802F02DF9ADE62848226200F038FF4E
:10098000204602F025F914E6062301212448C8F880
:10099000203000F02DFF404602F01AF97BE60223DA
:1009A00007212048236200F023FF204602F010F9BF
:1009B000FFE506231C48C8F8203000F019FF404628
:1009C00002F006F967E606231848C8F8203000F060
:1009D0000FFF404602F0FCF85DE600BF74390000EE
:1009E0002087FF1F183A0000BC390000C4390000FE
:1009F0009C3900005C390000603900005839000063
:100A0000AC390000F0390000483900004C390000D2
:100A10006C390000B43900006439000094390000DA
:100A200050390000A4390000683900007039000016
:100A300010B472B6184B1A6E1AB39A6EBAB162B687
:100A40001649174B174A401AA3FB00131B09002134
:100A50000B2B117009D872B613484FF00041026891
:100A600021FA03F31A43026062B610BC70470D49C5
:100A70000E4C0A789C660830013AD8660A7062B655
:100A8000F3E708490A4C0A781C660830013A5866B0
:100A90000A7062B6E9E700BF0080FF1FBC83FF1F3A
:100AA000398EE338B08CFF1F4487FF1FC800400019
:100AB000880040000C4B0D4AC31AA2FB03231B09FC
:100AC0000B2B0CD80A4A117851B972B609484FF06D
:100AD0000041026821FA03F31A43026062B67047CC
:100AE0005278002AF1D0A3E7BC83FF1F398EE33888
:100AF000B08CFF1F4487FF1F10B4224B1A79920657
:100B000010D52148DA790378204901333F2B097841
:100B1000C8BF00238B42D2B204D01D491944DBB2B6
:100B20000A710370174AD378DBB21C060DD459063C
:100B300009D5144B1A79520605D5154900202C22E7
:100B400081F87000DA7010BC704711790806EED594
:100B50000F4890F8444090F84510C9B28C420ED02E
:100B60004A1C272A86BF00210A46D1B20244054CFE
:100B700092F84820D2B2E27180F84510D7E76C2194
:100B8000D170D4E700C00640D18EFF1FD28EFF1F68
:100B9000B08CFF1FF0B53C4B1A7912F0300F31D0FA
:100BA00072B6997D01F0FF02002942D062B6DFF8EB
:100BB000E4E036499EF800000E78354D1C46C0B280
:100BC000F6B2431C402BE17928BF0023B34202F167
:100BD000FF32C9B203D0EF18184687F8741012F02C
:100BE000FF02EED1D5F8B430C2B28EF800204BB17E
:100BF000B04236BFC6F14006801B80192728C4BF0B
:100C000001221A702049CA78D2B2150616D45206AB
:100C10000ED51D4B1B795B060AD51D4BD3F8E8207A
:100C2000002183F8E41002B11170174B3C22DA70F6
:100C3000F0BD4022D9795A7462B6E3E70B791C06FD
:100C4000E5D5134D95F8B84095F8B930E4B2DBB26C
:100C50009C4202D10EE0A3420CD00133282B28BFC6
:100C60000023E8180E7990F8BC00C0B2C871087D66
:100C70000728F0D9DBB2044985F8B9300B7918069A
:100C800044BF7C23CB70C2E700B00640D08EFF1F6C
:100C9000B08CFF1FCF8EFF1F72B60D480268B2FAEC
:100CA00082F30B2B10DC4FF00041D94022EA010205
:100CB000026062B6074803EBC303DB00C2180021E1
:100CC000C15010465160704762B60020704700BFA7
:100CD0004487FF1FBC83FF1F10B50F4CD4F8F000F2
:100CE000012384F8EC3030B14088002384F8EC30E4
:100CF000C0F1400010BD63781BB9002084F8EC00FF
:100D000010BD01F039F80728F7D8FFF7C5FFC4F880
:100D1000F0000028E8D1F0E7B08CFF1F70B5114C4F
:100D2000637893B1D4F8F050012684F8EC606DB18B
:100D300000266B8884F8F46028462B8000F0EAFFD8
:100D4000C4F8F060002384F8EC3070BDFFF7A4FF16
:100D500020B184F8F45000F0DDFFF3E784F8F4608C
:100D6000F0E700BFB08CFF1F2DE9F04FDFF808B3AC
:100D700089B05BE0B14A4FEA930802EBC809013D34
:100D8000D9F8044003F00803EDB2A4F1080003F021
:100D9000FF01002B40F0248152F838301B0C9EB22A
:100DA00024F8086C002B00F01281A54B24F8061CD7
:100DB00044F8041C53F82510002900F08882A14C47
:100DC000AB00E118D1F8141148609F4F1C4437F86C
:100DD0001530C4F814011E4427F81560994872B6FE
:100DE0009A4C2168B1FA81F30B2B00F375824FF016
:100DF0000040D84021EA0001216062B6944D954C34
:100E0000954903EBC30305EBC30019F0080F18BFA6
:100E1000214600F108060024C9F8046042F83810A1
:100E200045F83340446008238BF800309BF80050AD
:100E3000EDB26A071DD5834C6378BBB194F80021ED
:100E400002F0FF032AB1013BDBB284F8003103B9A1
:100E500000BE94F8F4207B4C02F0FF0332B1013B5A
:100E6000DBB284F8F430002B00F0F78104238BF818
:100E7000003005F0080303F0FF02002B00F00B81A7
:100E8000764B1B78DBB21D097FF474AF9B086B4D6A
:100E900055F8332005EBC301C2F38302013A4968D8
:100EA0000C2A00F29080DFE802F083838E8E8E8E13
:100EB0008E8E478E8E8E07000868624C4A68654E9B
:100EC00045F83360C4F8082140F2816382B2002102
:100ED000C4F804019A424FF00100C4F80C112961D2
:100EE000A96184F8100100F2F680B2F5D06F80F0AD
:100EF0009082B2F5817F00F0358200F20F82802A65
:100F000000F0AF83822A40F03482B4F8083103F055
:100F10007F03042B00F22D82514A84F8F8109B00C5
:100F20001A4484F8F91013789E0740F1C0832246D2
:100F3000022102F8F80F88E2424CD4F80C314BB38E
:100F4000B4F82A2194F8100194F82911402A164681
:100F500041F0020E28BF4026002880F00100A2EBDD
:100F600006020CBF8827C82784F8100105EBCE00C5
:100F700092B247EA064781F001014360A4F82A21B2
:100F800045F83E70334484F82911002A00F0DE80D1
:100F9000C4F80C31B4F804312A4AB3F5A06F12D169
:100FA000304B92F806111970002382F805310AE0DF
:100FB000244CB4F8040142F22102904200F0CA80AD
:100FC000244A45F83320284A012313702BE721498E
:100FD000214B19F0080F18BF0B4642F8383022E7B2
:100FE0001B4B2249C31AA1FB03131B090B2B10D85F
:100FF00014490C781CB14978002940F0D68172B6AA
:10100000124E4FF00040316820FA03F3194331606B
:1010100062B61749174851F82530002B00F064815B
:101020005C68465D41F8254003F10801C9F80410E9
:10103000032E25D8DFE806F04C4946220080FF1F2A
:10104000B48EFF1FB08CFF1FC48EFF1F4487FF1F8D
:10105000BC83FF1FC800400088004000902007406C
:10106000C02007409820074094200740398EE3387D
:10107000808EFF1F7C8EFF1F80200740042141557A
:10108000198819F0080F0CBF8823C82343EA0143CD
:1010900042F83830C7E6E80700F1F180290600F190
:1010A0003381AA0706D5C34AC34913780220DBB2AD
:1010B00013700870EB0602D5BF4B10221A7009B0EE
:1010C000BDE8F08F05214155DAE702214155D7E708
:1010D00003214155D4E742F221039A4200F0B9803E
:1010E0006DD8B2F5086F00F0AB81B2F5106F40F02B
:1010F0004081B24F94F80631B14EDFF8E892637048
:1011000007F18008A24603E00837B84500F0B9812E
:101110003B6A1B06F8D5786AAA4A0838C9EB00036F
:10112000A2FB03231B090B2BEED8227822B19AF8DD
:101130000120002A40F0BF8272B64FF000413268B1
:1011400021FA03F31A43326062B6DDE7402E18BF7E
:1011500000231DE70A784E78887884F82C21CA7815
:1011600084F82D6184F82E0184F82F21D4F82C21E5
:101170000E794879897984F83101862A94F8290111
:1011800084F8321194F8101184F8306104BF0F22F2
:1011900084F8002140F00202002980F0010084F868
:1011A00029010CBF8820C82045F8320005EBC20297
:1011B00081F00101002084F81011506000E742F234
:1011C00021239A4240F05C827F4A94F806311268EB
:1011D000C4F8242184F8283100239E461E469946EF
:1011E0001A4694F829C14CF0020805EBC8070028FC
:1011F0007A600CBF8822C82216438CF0010745F89C
:10120000386084F8101184F829716C4E6F4A002BF5
:1012100040F0B680B9F1400F1BD147F0020705EB53
:10122000C705664EC5F804E0002940F0DD801904CA
:1012300041F0880146F8371084F8100184F829C17C
:101240000EEB0302402B04D10023C4F80C21A4F8B8
:101250002A315F4A01231370B5E694F8EC3003F0AD
:10126000FF06002B7FF402AED4F8F000002871D006
:101270004388038000F04EFDC4F8F060F6E54F4B64
:10128000534C1A6102202070DFF850E15148186079
:1012900098604E49474D484F4F4E9A610D208EF849
:1012A0000000FF2028704FF09F0E387032702871B8
:1012B000012601F59A7501F5BA7087F804E02670E9
:1012C00081F829215D60D86009B0BDE8F08F43F84E
:1012D00025003E4CAB0078E562B60378002101336F
:1012E00042F8381003709EE5435D032B00F28A80BC
:1012F00001A252F823F000BF270E0000270E0000C5
:101300004F1300004913000034492B4B80220D205D
:1013100008701A70AA077FF5CDAEC4E640F202331A
:101320009A4240F0A681B4F8083103F07F03042B01
:101330001FD8B4F80611E1B9284A9B001A44137863
:1013400043F00203137047E7012343556BE5002385
:10135000435568E5FFF7A0FC002800F0A38100F0EA
:10136000D9FC83E5B4F8083103F07F03042B40F285
:101370008C811A4B0F221A70154A0123137022E632
:10138000402B7FF64AAF47F0020706EBC705C5F8CA
:1013900004E0A9B3124982F8100182F829C1403B48
:1013A0000EF1400246F837104FE70192FFF740FB7D
:1013B000019A2EE688200740802007400080FF1F0A
:1013C0004487FF1F398EE338708EFF1FB08CFF1FDC
:1013D000942007408800400098200740C020074024
:1013E000C8004000BC83FF1F190441F0C80184F805
:1013F000100184F829C10EEB030246F8371021E7EB
:10140000B249C8E719F0080F0CBF02230323435564
:1014100009E5B4F80601B4F80861AD4AAD4B03E044
:101420000C335A68002AA4D019888142F8D159880F
:10143000B142F5D1000A03280CBF1178198904E0E4
:101440002246637802F8F83F0146B4F80A31A24810
:101450008B4280F06C8190F829C14CF0020805EBBA
:10146000C801402B994628BF4FF040094A6002EB63
:10147000090EC9EB03034FEA094600210120C822E7
:10148000BAE6964B0193964B0293964B0493964B78
:101490000393964B964FDFF8708205970022A3F5D1
:1014A0008A799246019B186808B34FF000411746AD
:1014B000904AC8EB0003A2FB03231B090B2B4268D5
:1014C00011D894F800E0BEF1000F05D099F801E0C2
:1014D000BEF1000F40F0BE8072B6306821FA03F30F
:1014E0000343336062B61046002AE1D13A46029BBC
:1014F0001868019BC3F800A07C4B43F822A008B3F6
:101500004FF0004117467B4AC8EB0003A2FB0323C0
:101510001B090B2B426811D894F800E0BEF1000FB4
:1015200005D099F801E0BEF1000F40F08C8072B652
:10153000306821FA03F30343336062B61046002A91
:10154000E1D13A46039B1978029BC3F800A0049BA3
:1015500043F804AB0493059B023923F812A0032936
:1015600006D8DFE801F06C026C02039B01211970C0
:10157000019B04330193029B04330293039B0132CA
:101580000133042A03938DD15B495C485C4ADFF840
:1015900048C1DFF884E1002323702B63AB632B6524
:1015A000AB6515270B7019210770117072B6316881
:1015B0005448B1FA81F20B2A00F3B0804FF0004793
:1015C000D74021EA0701016062B64F483F49CEF893
:1015D000601002EBC20200EBC20101F1080740F803
:1015E0003230CEF864704B6072B632684548B2FA59
:1015F00082F30B2B62DC4FF00041D94022EA01025A
:10160000026062B64048414AAA6603EBC30300EB9E
:10161000C302002102F1080640F83310EE66516063
:101620003B4B15221A7094F81001002380F0010141
:101630002B67AB67C5F89030C5F89830CCE5039BB5
:1016400083F800A094E707910692FFF7F1F9069A54
:10165000079973E707910692FFF7EAF9069A079947
:1016600041E784F8F81084F8F91004F1F802022137
:10167000EBE6B2F5A06F7FF47CAE00210120ABE574
:1016800042F221339A42F8D073E6B4F806110029E9
:101690007FF46FAE1F4A9B001A44137823F00203B5
:1016A000137099E5012384F8F430FFF7DFBB0221C2
:1016B00004F1F802C9E6FFF7BBF925E562B6237825
:1016C00000220133AA662370AAE700BF8800400009
:1016D0004887FF1F2C3A0000B08CFF1FB48EFF1FFD
:1016E000808EFF1F908EFF1F7C8EFF1FC48DFF1FFB
:1016F000C48EFF1F398EE338C4200740C82007403E
:10170000CC2007404487FF1FBC83FF1FC800400058
:10171000D0200740C02007400080FF1F62B69CF821
:101720000020CEF86030531C8CF800305CE7402974
:10173000894628BF4FF04009C9EB01034FEA09462B
:1017400002EB090E002101204BE500BF10B50A4C49
:10175000637883B1D4F8B40148B1FFF7ABF9002343
:10176000C4F8B43100F062FD28B1FFF7A3F900F02E
:101770005DFD0028F9D110BDB08CFF1F10B5094CDC
:10178000D4F8B40118B143881844007A10BD6378C6
:101790002BB100F04BFDC4F8B4010028F3D14FF099
:1017A000FF3010BDB08CFF1F38B5104DD5F8B40117
:1017B00080B143880288C118013393420C7A02D267
:1017C0004380204638BDFFF775F900232046C5F851
:1017D000B43138BD6B782BB100F028FDC5F8B401E9
:1017E0000028E6D14FF0FF3038BD00BFB08CFF1F9E
:1017F0002DE9F047374D4FF0010885F8EC80894618
:1018000059B304460E462F46D5F8F00098B34288E7
:10181000C2F14001B14228BF314602EB010E002364
:101820001FFA8EFE85F8B831761AA0F802E000F1B2
:10183000080351B1013A1344214414F8012B03F871
:10184000012F8C42F9D1B0F802E0BEF13F0F0AD867
:10185000052385F8F430002ED6D1002385F8EC302E
:101860004846BDE8F0874023038000F053FA002388
:10187000C5F8F030ECE77B7823B348F6014A09E07D
:10188000BAF1010A17D095F8B831A3B900F0E2FC1B
:101890007B78BBB100F070FA0728F1D885F8EC80AE
:1018A000FFF7FAF9C5F8F0000028B0D1BAF1010A43
:1018B00087F8EC00E7D1012385F8B8314FF0FF300D
:1018C000BDE8F087002385F8EC304FF0FF30BDE82D
:1018D000F08700BFB08CFF1F054B064AD3F8B43128
:1018E00090881BB11A885B88D31A1844704700BFD0
:1018F000B08CFF1FC48EFF1FEEE700BF2DE9F04341
:1019000085B072B67A4B7B4D7B48702241260F24FE
:1019100080211A702E701A460470197013781B06F5
:10192000FCD5764B1B6862B6754A764E93429CBFD7
:101930000A225343A6FB0312D20802EB8201A3EB57
:10194000410330338DF804301346002A00F0B5808F
:1019500001A804460021A6FB0352D20802EB82052F
:10196000A3EB4503303304F8013F01311346002A4D
:10197000F1D104AC0C4401AA0A4404F80B3C1478DD
:10198000057800F8014B0133CC1AA34202F8015943
:10199000F5DB9DF80430002B00F092805A4A9DF848
:1019A00005105383002900F091809DF80630918343
:1019B000002B00F08D809DF80710D383002900F0E4
:1019C00089809DF808301184002B00F085809DF8F7
:1019D00009105384002900F081809DF80A30918419
:1019E000002B7DD09DF80B10D38400297AD09DF870
:1019F0000C301185002B79D09DF80D1053850029EE
:101A000072D091851621414B4148117600221A600F
:101A10005A609A60DA601A615A619A61DA611A62F0
:101A20005A629A62DA621A635A639A63DA631A64D0
:101A30005A649A64DA641A655A659A65DA651A66B0
:101A40005A669A66DA661A675A679A67DA670168A9
:101A5000304EC3F8802041F48021C3F88420DFF8A1
:101A6000D09001602C4DDFF8CCE02C4F2C4CDFF8EF
:101A7000C880DFF8C8C02B48C3F307213170C3F317
:101A800007411B0E89F800102B70FF238EF80030E1
:101A9000254D3B7025492370012388F800307027BD
:101AA0008CF800204FF40074102206F8183C2F70B8
:101AB00004600A7005B0BDE8F0838DF8052068E782
:101AC000114A194601314900C9B29CE70121F9E7E1
:101AD0000221F7E70321F5E70421F3E70521F1E708
:101AE0000621EFE70721EDE70921EBE70821E9E708
:101AF00000000240070002400600024008000240C9
:101B00007F969800CDCCCCCC4487FF1F0080FF1F70
:101B1000348004409C200740B420074088200740C0
:101B20001020074008E100E049E400E008210740F8
:101B3000B020074080200740942007400021074044
:101B40002DE9F8432B4B1B681A054CD52A4DD5F8C7
:101B5000E83006460BB101221A7006EB01094E452A
:101B600043D2DFF898800CE016F8013B2C44B145D5
:101B700084F8BC304FF0010385F8E43085F8B87084
:101B800033D095F8B84095F8B9300134272C86BF8A
:101B900000273C46E7B29C42E6D1BC2388F80330DC
:101BA00007E098F804301B060CD495F8B9309C4235
:101BB000DAD101F00DFC4028F3DDFF28F5DD00F05F
:101BC00049FBF2E795F8B9300133272B86BF002295
:101BD0001346DAB22B4493F8BC30DBB288F80730F6
:101BE00085F8B920E1E7BDE8F883044BBC22DA7040
:101BF000BDE8F88334800440B08CFF1F00B006407D
:101C0000184A30B41468002C27D0036821688B422E
:101C10000ED2CB1A00218460C16010602360E060A6
:101C20000223037530BC704711688B42144608D3F9
:101C3000A2685B1A0360002AF6D18260C460A060CB
:101C4000EEE7D268C2608460E060C568CB1A022209
:101C5000A8602360027530BC70478460C460106067
:101C6000DEE700BF6C8EFF1F70B51B4D6B682C68E4
:101C700001336B60E4B123681E4623B128E02C6871
:101C8000B4B1236823BBA3682246002103B1DE6000
:101C900020692B60036826751B6898476368002BD2
:101CA000EDD023602046FFF7ABFF2C68002CE8D175
:101CB000EFF3108372B60022A868AA6003B962B677
:101CC00028B18468FFF79CFF20460028F9D170BD39
:101CD000013B2360ECE700BF6C8EFF1F38B5EFF3CC
:101CE000108272B60A4CE06878B100254369E3605F
:101CF00003B19D6102B962B6457783689847EFF3F7
:101D0000108272B6E0680028F0D102B962B638BD20
:101D10006C8EFF1F72B6154AD37C032B1CD8DFE8EC
:101D200003F015120218124B0521D174018813F02B
:101D3000080F14BFC8228822083042EA01425860C6
:101D40001A6062B6704702210A4BEEE70321084B86
:101D5000EBE70421074BE8E7136A044923B10B6B57
:101D60005860106362B670470862FAE76C8EFF1F16
:101D70009080FF1F9880FF1F72B6064B1B6A33B11D
:101D800000205B680130002BFBD162B6704718461B
:101D9000FBE700BF6C8EFF1FF0B58BB0002934D07D
:101DA000012908BF0A2158B3212500E0FDB2B0FB8C
:101DB000F1F601FB1600C3B2092803F1300098BF09
:101DC000C3B20AA888BF373300EB050488BFDBB273
:101DD0006F1E04F8243C3046002EE7D132B1013D9D
:101DE000EDB20AAB2B442D2203F8242CC5F12204BA
:101DF00001AB5819214601F061FB20460BB0F0BD44
:101E000030238DF825302125E8E7C0B201F0B6FB7C
:101E1000012420460BB0F0BD2DE9F04F944F4B78D4
:101E20007A6887B0032B059200910646DDF814907E
:101E300000F00C810824DFF838824FF416650AE0C0
:101E4000013BFDD1D8F804300493049BC9EB030394
:101E5000372B00F2E880786B03681B699847A04233
:101E60002B46EDDB0023DFF808B201931C467B68AC
:101E70000393039BC9EB0303362B00F2E380002C92
:101E800000F09D80012C00F0AE80009B96F8018050
:101E90005B788033984500F0A180B8F1060F7FD0C1
:101EA000B8F1100F00F0B880B8F1030F6AD00D211F
:101EB000704801F003FB002C1FDD04F1FF3A06F12E
:101EC000FF38002506E004216B48013501F0F6FAE1
:101ED000A54212D01021002218F8010FFFF75CFF75
:101EE000554566484FF00101EDDB01F0E7FA013599
:101EF000634800F06DFEA542ECD13219A3B212F88E
:101F0000025C12F8011C9A1E12B2002A41EA052551
:101F100040F39480033B16FA83FE701E4FF6FF7366
:101F200010F8011F08224B40013A03F0010192B260
:101F30005B0819B183F4204383F00103002AF3D135
:101F40008645EDD14FEA032848EA13231FFA83F8A8
:101F5000C2460C214B4801F0B1FA00221021504634
:101F6000FFF71AFF1221484801F0A8FA00221021B9
:101F70002846FFF711FF424800F02AFE45456BD086
:101F8000002474E7DBF8340003685B699847305538
:101F9000B378FB2BF4D80134023324B25FFA83F810
:101FA000A2460025786B03685B69984701340135C8
:101FB00024B2454506F80A00A246F3DB77E7DBF8D2
:101FC000340003689B699847009B1B789842DBF8B4
:101FD000340003685B6922D0984748E701234FF03B
:101FE00003080193DCE7DBF8340003689B6998473A
:101FF000009C6378984208D0DBF8340003689B6942
:102000009847637880339842BAD1786B03685B69EC
:102010009847022470702AE74FF00608C0E79847F7
:102020000124307023E71221184801F047FA1448C0
:1020300000F0CEFD002007B0BDE8F08F4FF6FF7A2C
:10204000D04686E7002007B0BDE8F08F8C8864BAE0
:1020500064000534E4B2EEE6019B2BB1B078404257
:1020600000B207B0BDE8F08F204607B0BDE8F08FA2
:102070006C8EFF1F043C0000143C0000E839000097
:10208000EC87FF1F1C3C00002C3C0000F03B0000D4
:10209000F8B52A4C638F012B05460BD9606B03689A
:1020A000DB68984794F83A20254B53F832300122E8
:1020B00083F88020681E6E1D4FF6FF7310F8011F15
:1020C00008224B40013A03F0010192B25B0819B1BA
:1020D00083F4204383F00103002AF3D18642EDD13B
:1020E0001A0242EA132343F30722144EEB71AA713A
:1020F00003E0706B03685B699847606B0F4F036880
:102100001B6998470028F4D1786B036829465B68FF
:1021100008229847786B0368DB6898477B8F012B10
:1021200006D9074ADBB252F83330012283F8002186
:102130000A2001F027F80820F8BD00BF6C8EFF1FB1
:10214000803A000030B5C3B00D128DF800001412B3
:10215000062368468DF802508DF803108DF805208F
:102160008DF804408DF80130FFF792FF002808DD5C
:102170000023694602A88DF80830FFF74DFE43B0F2
:1021800030BD6FF00400FAE770B5C0B0054600241A
:1021900068468DF80040FFF73FFE061E3BDD023E1D
:1021A00036B2A64237DD9DF802305B0804D12FE03D
:1021B0000134A4B2A3422BD90DEB44030521DA78F4
:1021C0001B79164843EA022325F8143001F076F90A
:1021D00000220A212046FFF7DFFD0521104801F00B
:1021E0006DF90022102135F81400FFF7D5FD9DF898
:1021F00002305B085A1E9442DADA0221094801F0E3
:102200005DF99DF8023001345B08A4B2A342D3D833
:10221000054800F0DDFC304640B070BD403C000099
:10222000483C0000EC390000EC87FF1F72B6084BF9
:10223000186D58B10188B3F85C2010B4521A446884
:102240001C65A3F85C2062B610BC704762B670478C
:102250006C8EFF1F38B5194C94F8603003B138BD4F
:1022600094F8612084F8603094F8623094F8633018
:1022700094F8643094F8653094F86630EFF3058391
:10228000002BECD1EFF3108272B6A06E90B194F8EF
:102290006C307BB94169A166012584F86C5001B1AD
:1022A0008B6102B962B6002545778368984784F848
:1022B0006C50D4E7002AD2D162B638BD6C8EFF1FB5
:1022C000064A074B1B781078DBB2C0B283422CBFA2
:1022D000273000F1FF30C01A704700BF698DFF1F23
:1022E000688DFF1F0D4B1B681B0516D530B40C4BBA
:1022F0000C4CDA780C480D4902F0CB024025DA701C
:102300005D74DA7842F03402DA7023780268DBB266
:102310000B700AB10023137030BC70473480044046
:1023200000B00640D08EFF1F648DFF1FCF8EFF1FB1
:102330000D4B186810F4006007D0172906D00B4A1F
:10234000537B03F0FE0353730020704703F53F53A4
:102350001433064A40F202311960537B43F0010303
:1023600053730120704700BF3480044000B0064022
:102370000AB141F08001174803788B4216D010B49F
:10238000154C246824050FD503F07F030A2B1CD0BD
:102390001F2B11D0002A01F07F0214BF60234423B9
:1023A0000A2A0DD01F2A02D0017010BC70470B4AB8
:1023B00043F440731360F7E7084B00241C60E9E71F
:1023C000074A43F440731360EEE7054B00241C609A
:1023D000E0E700BFFD87FF1F3480044000D00440C9
:1023E00010B00440124B1A7891420CD0114800688A
:1023F000000507D5092A16D01A2A0AD009290DD0B6
:102400001A2901D0197070470B4A40F2133010603E
:10241000F8E7094A002009291060F1D1074A40F283
:1024200013301060EEE7054A00201060E6E700BFB9
:10243000FC87FF1F3480044004D004400CB00440EB
:102440000368C9B21B6818470368C9B21B681847FC
:10245000064A074B1B781078DBB2C0B283422CBF10
:102460003F3000F1FF30C01A704700BF3D8FFF1FA3
:102470003C8FFF1F0D4B1B685B0516D530B40C4B12
:102480000C4CDA780C480D4902F0CB024025DA708A
:102490005D74DA7842F03402DA7023780268DBB2D5
:1024A0000B700AB10023137030BC704734800440B5
:1024B00000A00640CE8EFF1F388FFF1FCD8EFF1F5E
:1024C000104B186810F4806016D0122908D0142917
:1024D00013D00D4A537B03F0FE0353730020704763
:1024E00003F5FE53183340F202321A60064A537B5A
:1024F00043F00103537301207047044B40F2023252
:102500001A60F3E73480044000A0064014C0044081
:102510000AB141F08001174803788B4216D010B4FD
:10252000154C246864050FD503F07F03012B1CD0E4
:10253000052B11D0002A01F07F0214BF6023442331
:10254000012A0DD0052A02D0017010BC70470B4A39
:1025500043F440731360F7E7084B00241C60E9E77D
:10256000074A43F440731360EEE7054B00241C60F8
:10257000E0E700BFFE87FF1F348004401CC004401A
:1025800044A00440104B1A7891420AD00F480068CA
:10259000400505D5AAB1152A09D069B1152901D080
:1025A000197070470A4A40F213301060F8E7084A81
:1025B000002010600029F1D1064A40F2133010606B
:1025C000EEE704480260E8E7888FFF1F348004408C
:1025D00018C0044040A00440C37A212B08D8054A03
:1025E00052F8333093F80002003018BF01207047D2
:1025F00000207047803A0000084A094B12781B7887
:10260000DBB29A4207D00133402B28BF0023054A92
:10261000D05CC0B270474FF0FF307047CF8EFF1FC5
:10262000D08EFF1F248DFF1F084A094B12781B789C
:10263000DBB29A4207D00133402B28BF0023054A62
:10264000D05CC0B270474FF0FF307047CD8EFF1F97
:10265000CE8EFF1FF88EFF1F30B4154B154C1A7825
:102660002378D2B2DBB29A421ED001333F2B0ED96F
:102670001149124B087819680023C0B2237021B1A8
:10268000D31A1A2B01DC00230B7030BC70470A48A8
:102690000A49C05C0968DDB2C0B225700029F4D0D7
:1026A0009A4238BF4032EBE74FF0FF30EDE700BF12
:1026B000CF8EFF1FD08EFF1F248DFF1F648DFF1F45
:1026C000054A064B10781B78C0B2DBB2984238BF7F
:1026D0004030C01A704700BFCF8EFF1FD08EFF1F43
:1026E00030B4154B154C1A782378D2B2DBB29A422B
:1026F0001ED001333F2B0ED91149124B08781968AF
:102700000023C0B2237021B1D31A1A2B01DC00239D
:102710000B7030BC70470A480A49C05C0968DDB2DA
:10272000C0B225700029F4D09A4238BF4032EBE79E
:102730004FF0FF30EDE700BFCD8EFF1FCE8EFF1FA5
:10274000F88EFF1F388FFF1F054A064B10781B7845
:10275000C0B2DBB2984238BF4030C01A704700BFE9
:10276000CD8EFF1FCE8EFF1F00B583B002A800F8EC
:10277000011D0121FFF73CF803B05DF804FB00BF29
:1027800008461146FFF734B808B5084600F03EFE8B
:10279000012008BD08B5084600F038FE012008BD3C
:1027A0000368064A1B68934205D110B5C8B200F011
:1027B0002DFE012010BDC9B2184700BF95270000AB
:1027C0000368064A1B68934205D110B5C8B200F0F1
:1027D0001DFE012010BDC9B2184700BF952700009B
:1027E00010B5084614461146FFF7AAF9204610BD59
:1027F00038B508460D4600F083FF044601462846DA
:10280000FFF79EF9204638BD0D4B1B6813F400609E
:1028100005D0212904D90B4B002018607047704760
:10282000094B10B5074C53F831302360084601219D
:1028300000F092FD236800221A70012010BD00BF35
:1028400034800440648DFF1F803A00000D4B1B68EC
:1028500013F4806005D0212904D90B4B00201860A7
:1028600070477047094B10B5074C53F8313023605F
:102870000846012100F070FD236800221A70012033
:1028800010BD00BF34800440388FFF1F803A000025
:10289000C8B2D1B200F060BD0B4A38B50D4613780E
:1028A00003F0FF04002BFAD10121284600F054FD6B
:1028B000212D03D82146284600F042FC034A044B50
:1028C00052F835201A6038BD948DFF1F803A000001
:1028D000988DFF1F0B4A38B50D46137803F0FF049F
:1028E000002BFAD10121284600F036FD212D03D816
:1028F0002146284600F024FC034A044B52F83520B8
:102900001A6038BD808FFF1F803A0000848FFF1F40
:10291000234B1B681B0542D510B5224C237823B1ED
:10292000FFF798FC2378002BFAD11F481F4A204B51
:102930004FF4004400210460D1701B78092B1FD094
:102940001A2B03D11B4B40F203121A601A4B1B784F
:1029500003F07F030A2B1DD01F2B03D1174B40F22E
:1029600003121A60164A114B1648174912681C794F
:10297000DB79002303700B700AB10123137010BDC3
:10298000124B40F203121A600B4B1B7803F07F03CB
:102990000A2BE1D10E4B40F203121A60E2E77047B6
:1029A00034800440948DFF1F84E100E000B00640B5
:1029B000FC87FF1F04D00440FD87FF1F00D00440A8
:1029C000648DFF1FCF8EFF1FD08EFF1F0CB0044001
:1029D00010B00440234B1B685B0541D510B5224C59
:1029E000237823B1FFF736FC2378002BFAD11F4858
:1029F0001F4A204B4FF4005400210460D1701B7813
:102A0000FBB1152B03D11C4B40F203121A601B4B78
:102A10001B7803F07F03012B1DD0052B03D1184B2E
:102A200040F203121A60174A114B174817491268EF
:102A30001C79DB79002303700B700AB1012313703A
:102A400010BD134B40F203121A600C4B1B7803F0BD
:102A50007F03012BE1D10F4B40F203121A60E2E732
:102A6000704700BF34800440808FFF1F84E100E086
:102A700000A00640888FFF1F18C00440FE87FF1F7C
:102A80001CC00440388FFF1FCD8EFF1FCE8EFF1F4E
:102A900040A0044044A0044010B5044C237823B166
:102AA000FFF7D8FB2378002BFAD110BD948DFF1FC0
:102AB00010B5044C237823B1FFF7CCFB2378002B0F
:102AC000FAD110BD808FFF1F034B03EB5100B0FB09
:102AD000F1F000F04FBA00BF0044950808B5084671
:102AE00000F04CFD012008BD08B5084600F046FD89
:102AF000012008BD38B508460D4600F001FE044629
:102B00000146284600F0DAFC204638BD10B50846DC
:102B10001446114600F0D2FC204610BD034B03EBD7
:102B20005100B0FBF1F000F099BA00BF00449508E5
:102B3000194B4808034410B5B3FBF1F0144600F0FC
:102B40008DFA164B15499B7804F0030203F0EC0351
:102B50001343600704F00F0248BF43F01003042A38
:102B60008B7013D00D4B0D4A5B79E10603F0EF0338
:102B700048BF43F0100353719379A20603F0EF03AB
:102B8000064A48BF43F01003937110BD8B7943F0A0
:102B900040038B71E6E700BF0044950800A00640A3
:102BA00010B5064B144603EB5100B0FBF1F000F0FA
:102BB000E1F92046BDE8104000F0B0B900449508A6
:102BC00010B5036814465B689847204610BD00BFE7
:102BD00000B5064A036812885B6883B001A9ADF8A6
:102BE00004200222984703B05DF804FB503C00002B
:102BF0002DE9F0472F4D304E304CDFF8C480DFF820
:102C0000C49084B005F11807B2460DE0039283F03A
:102C100002030399A37203F00102616045F8042BDB
:102C2000AF4204F110043AD0A37A226803F0FB0308
:102C3000A3721268424538D1E27A212A33D859F872
:102C4000322092F80002003018BF0120C3F3400286
:102C500090423268DAD1029202996268B4F808E0D0
:102C60008A1A724503F00102D8D39042D6D0DAF81E
:102C70000020019283F0010343F004030198DAF885
:102C800000200092DBB203F0010245F8042B00990A
:102C9000A372AF426060E16004F11004C4D1054842
:102CA00004B0BDE8F0870020D0E720469047A37A23
:102CB000CCE700BFDC8EFF1F708EFF1F508CFF1F04
:102CC000D9250000803A000008B500210B2000F053
:102CD00037FA0C210348FEF78BFD0348BDE8084096
:102CE00076E700BF643C00002087FF1FF0B52B4B48
:102CF0002B4E596818689A68DB6885B06C460FC41B
:102D0000337899071DD5274A274C1378274913F0A4
:102D1000700318BF1370264A264B802717700026B1
:102D20003320032226706D4608701A7072B6043C78
:102D300045F001052046A84762B6237813F07003DA
:102D400029D11D4B164901E0013B02D00A78D20778
:102D5000FAD51A491A4B1B481B4CC860032601259B
:102D6000002208618E800D818A7203F160000A21C1
:102D700043F8104C43F80C2C23F8081C03F8062CDD
:102D800003F8052C10338342F2D1104B1B680093DB
:102D9000009B05B0F0BD2370DBE700BF543C000092
:102DA0000100024000000240040002400B0002400B
:102DB000070002400A000240410D0300A08EFF1FE1
:102DC000608CFF1F0080BB4518390000708EFF1F0C
:102DD000F0B43A4B1A7912F0300F2BD072B6997DBD
:102DE00001F0FF0200293DD062B6354F35493878F1
:102DF0000E78354D1C46C0B2F6B2431C402BE1792B
:102E000028BF0023B34202F1FF32C9B21CBFE9540C
:102E1000184612F0FF02F0D12B6CC2B23A704BB1DF
:102E2000B04236BFC6F14006801B80192728C4BFB8
:102E300001221A702149CA78D2B2150617D4520657
:102E40000ED51E4B1B795B060AD51F4BD3F88C2081
:102E5000002183F8881002B11170184B3C22DA70FF
:102E6000F0BC70474022D9795A7462B6E2E70B7918
:102E70001C06E4D5144D95F8444095F84530E4B26D
:102E8000DBB29C4202D10EE0A3420CD00133402BB6
:102E900028BF0023E8180E7990F84800C0B2C87126
:102EA000087D0728F0D9DBB2044985F845300B7955
:102EB000180644BF7C23CB70C1E700BF00A00640CA
:102EC000CD8EFF1FCE8EFF1FF88EFF1F08B5104C52
:102ED00008E0236859050DD423681A050FD4236828
:102EE000DB0411D423685803F3D5FDF73DFF2368B5
:102EF0005905F1D5FFF76CFF23681A05EFD5FDF7EB
:102F000049FE2368DB04EDD5FDF7F6FDEAE700BFD7
:102F10003480044008B5FFF7D9FF00BF144B1449B3
:102F20009B7803F0EC0200F003031343420700F028
:102F30000F0248BF43F01003042A8B7013D00C4BD0
:102F40000B4A5B79C10603F0EF0348BF43F010035F
:102F500053719379820603F0EF03054A48BF43F0AB
:102F60001003937170478B7943F040038B71E6E750
:102F700000B006402B4A2C491368F0B543F40063B7
:102F800013600A78DFF8D0E0284F294E294D2A4CEB
:102F90000023092A8EF800303B7033702B702370A9
:102FA0003BD01A2A20D04B780A2B24D01F2B2FD0AD
:102FB0001F2826D8002002460125204B204C1A70DD
:102FC00020495D7004224FF0020E88273C264025E0
:102FD00098729A704FF4004083F813E05A751F748A
:102FE000DE7025700860F0BD174B40F213321A6096
:102FF0004B780A2BDAD1154B4FF451721F281A6007
:10300000D8D9C0F34432C0F3471500F01F00D4E70D
:103010000F4B4FF451721A60CAE70E4B40F2133255
:103020001A60C0E734800440FC87FF1FD08EFF1F6A
:10303000688DFF1F698DFF1F948DFF1F00B0064034
:103040002FE400E004E100E004D0044010B00440AC
:1030500000D004400CB00440CF8EFF1FF0B52C4CC4
:103060002C4A21682C4F2D4E92F89050002341F4A9
:10307000806121603B70337082F8443082F84530C3
:1030800082F88830002D3DD0152D21D0244B9B781F
:10309000012B25D0052B30D01F2827D80020024631
:1030A0000125204B204C1A7020495D7004224FF0FE
:1030B000020E88273C26402598729A704FF40050E3
:1030C00083F813E05A751F74DE7025700860F0BD38
:1030D000174B40F213321A60114B9B78012BD9D158
:1030E000144B4FF451721F281A60D7D9C0F34432E1
:1030F000C0F3471500F01F00D3E70F4B4FF4517298
:103100001A60C9E70D4B40F213321A60BEE700BFE8
:1031100034800440F88EFF1FCD8EFF1FCE8EFF1F20
:10312000FC87FF1F00A006402DE400E004E100E062
:1031300018C0044044A004401CC0044040A0044007
:1031400010B40F4B53F8302092F880422CB1012379
:1031500069B182F8803010BC704703EBC0035B6834
:103160001A6841B922F002021A6010BC704782F856
:10317000003110BC704742F003021A6010BC704767
:10318000803A00002DE9F843054672B6214F224BE4
:10319000224A1B683C68126862B6520102D5322B83
:1031A00088BF0134A5B3C3F58C331D4EDFF868909A
:1031B000DFF8688003F23F134FF47A72A6FB031323
:1031C00002FB04F404EB131472B6D9F800103A6849
:1031D000D8F800E062B6C1F58C3303F23F13A6FBCA
:1031E00003031EF0806FC4EB13134FF47A7002D008
:1031F000322988BF013200FB0233B3F57A7F04D352
:10320000013D05D004F57A74DEE7FFF723F8DBE72C
:10321000BDE8F883708EFF1F18E000E004ED00E0C9
:10322000398EE338404B41484149DFF820C14FF423
:1032300000022DE9F0411A604FF080721A604FF0E1
:1032400000721A604FF080621A604FF000621A60DC
:10325000384F394E394C3A4DDFF8F4E0DFF8F4805E
:1032600000220260282348F6FF70CCF80000CEF858
:1032700000303B600B60336023602B60BB628B626D
:10328000092146F8241C06F57F66C4F8D82FC5F836
:10329000D40FC7F8F83F05F5FF25336007F5FF2782
:1032A000C4F8D41F06F5FD2604F5FF2405F5FA65DC
:1032B00007F2F47706F5FF6604F5FD642A600EF563
:1032C000022E386033601F48236007F54057A4F58D
:1032D000FA24602345F8041C0EF6FC7E88F80030C2
:1032E0000CF5405C083C043705F54055E123A6F594
:1032F000F9260370144919201323A6F2EC761C3525
:10330000CCF800002360CEF800003B6084233260DC
:103310002A60A3610B60FFF735FFFEF7EFFA40F27A
:103320001310BDE8F0412DE708E100E00480034000
:103330001C80034014800340248003402C80034001
:10334000348003400140074024B00B400880034014
:103350000C80034000400740212820D81B4A02EB84
:10336000C00301295B680FD004291DD052F830003A
:10337000002280F8802299B1022922D003290DD1A0
:103380004FF481721A60704752F830004FF4A27205
:1033900080F880121A601A6822F020021A607047C2
:1033A0004FF480721A60704752F830104FF4A272D6
:1033B000012081F880021A601A6842F020021A6027
:1033C000704740F203121A60704700BF803A000055
:1033D000EFF3138070B9EFF310836BB9EFF305824D
:1033E0005AB94FF48070EFF311832BB1984228BF84
:1033F000184670474FF0FF3070470F2A01D8184623
:10340000F1E7014BD05CEEE7F0E300E02DE9F84F87
:10341000234B1B681A053BD5224B1B680BB10122BD
:103420001A70DFF89090204D99F80040DFF88880FE
:103430001E4E0134272C8ABF4FF0000A5FFA84FA2F
:1034400054460746AB462B78A34216D1FFF7C0FF80
:1034500040281FDC33791B06F5D59BF8003001337B
:10346000272B86BF00221346DAB218F80330DBB2EE
:10347000F3712A702B78A342E8D00D490B4BFFB2B1
:103480000120BC2208F80470087089F800A0DA70E6
:10349000BDE8F88FFF28D6DDFEF7DCFED3E700BFDE
:1034A00034800440988DFF1F698DFF1F00B00640D7
:1034B000948DFF1F688DFF1F6C8DFF1F2DE9F84352
:1034C0002B4B1B685A054CD52A4DD5F88C30064637
:1034D0000BB101221A7006EB01094E4543D2DFF809
:1034E00098800CE016F8013B2C44B14584F8483034
:1034F0004FF0010385F8883085F8447033D095F893
:10350000444095F8453001343F2C86BF00273C46A7
:10351000E7B29C42E6D1BC2388F8033007E098F874
:1035200004301B060CD495F845309C42DAD1FFF7E5
:103530004FFF4028F3DDFF28F5DDFEF78BFEF2E7B5
:1035400095F8453001333F2B86BF00221346DAB28F
:103550002B4493F84830DBB288F8073085F84520D3
:10356000E1E7BDE8F883044BBC22DA70BDE8F883DC
:1035700034800440F88EFF1F00A006402DE9F84378
:10358000254B1B685A053FD5244DD5F88C300BB11F
:1035900001221A7095F84440DFF88090204E0134E3
:1035A0003F2C8ABF4FF000085FFA84F84446074674
:1035B00095F84530194AA3421AD1FFF709FF402870
:1035C00024DC33791B06F3D599F8453001333F2BC2
:1035D00086BF00221346DAB22B4493F84830DBB2A0
:1035E000F37185F8452095F845300C4AA342E4D0A4
:1035F00014440B4BFFB20120BC2184F8487082F8C0
:10360000880082F84480D970BDE8F883FF28CFDDB8
:10361000FEF720FECCE700BF34800440F88EFF1F89
:1036200000A00640FEE700BFFEE700BF0A4908B55C
:103630004B6840B16A461844A2F58052904204D2C9
:103640004860184608BD184608BD00F007F80C236E
:1036500003604FF0FF3008BDFC87FF1F014B186867
:10366000704700BF308CFF1F70B50F4E0F4D761B9B
:10367000B61018BF002405D0013455F8043B984714
:10368000A642F9D10A4E0B4D761B00F0F5FAB610A2
:1036900018BF002406D0013455F8043B9847A642D1
:1036A000F9D170BD70BD00BF843C0000843C0000B7
:1036B000903C0000843C0000024B13B1024800F033
:1036C00005B8704700000000D9360000002301460D
:1036D0001A46184600F082B838B5074D074C2C1B27
:1036E000A41005D0013C55F8043D9847002CF9D1B1
:1036F000BDE8384000F0CCBA000000000000000037
:1037000090F800F06DE9024520F007016FF0000C21
:1037100010F0070491F820F040F049804FF00004C9
:103720006FF00700D1E9002391F840F000F10800A4
:1037300082FA4CF2A4FA8CF283FA4CF3A2FA8CF3DC
:103740004BBBD1E9022382FA4CF200F10800A4FA43
:103750008CF283FA4CF3A2FA8CF3E3B9D1E9042397
:1037600082FA4CF200F10800A4FA8CF283FA4CF3CE
:10377000A2FA8CF37BB9D1E9062301F1200182FA88
:103780004CF200F10800A4FA8CF283FA4CF3A2FA8E
:103790008CF3002BC6D0002A04BF04301A4612BA9C
:1037A000B2FA82F2FDE8024500EBD2007047D1E99F
:1037B000002304F00305C4F100004FEAC50514F02E
:1037C000040F91F840F00CFA05F562EA05021CBFFF
:1037D00063EA050362464FF00004A9E72DE9F047CC
:1037E000254C2568D5F848410646884692469946B4
:1037F000C4B360681F2817DC431C76B104EB800556
:103800000122C5F888A0D4F8881182401143022E05
:10381000C4F88811C5F808911ED00230636044F8DE
:1038200020800020BDE8F087144B03B34FF4C8702C
:10383000AFF300800446D0B1D5F84831002780E8C6
:103840008800C5F8484138460123C4F88871C4F897
:103850008C71002EE1D0D1E7D4F88C110A43C4F862
:103860008C21DAE705F5A674C5F84841C1E74FF0A9
:10387000FF30BDE8F08700BF743C0000000000008E
:103880001B171C10111300000000000000000000B6
:1038900095270000E1270000C1220000992A0000BE
:1038A000C126000059260000F9250000C92A0000A1
:1038B000A12B00001129000099280000E523000039
:1038C000712300000928000031230000E5220000D8
:1038D000C1270000A1270000C1270000A127000088
:1038E000F127000089270000000000000000000010
:1038F0006927000081270000D90C00001D0D000081
:10390000F9180000A91700007D1700004D170000EE
:103910000000000000000000D925000091280000F0
:103920000B00000068656C6C6F20574F726C640070
:1039300049444C45494E47204272616B65204F4EC9
:103940002F4C4F57000000004300000045000000CE
:103950004600000047000000480000005265762045
:10396000410000005265762042000000526576203A
:1039700044000000464F52574152440052455645BC
:10398000525345004252414B4520484947482F4F2A
:10399000464600004272616B652041004272616BD5
:1039A000652043004272616B652044004272616B86
:1039B000652045004272616B652046004272616B72
:1039C000652047004272616B652048004252414BBE
:1039D0004520444953454E474147450053656E6471
:1039E000696E673A205B00005D0000002C2000003B
:1039F000474F494E4720544F2049444C45494E4774
:103A0000204252414B494E4700000000434F415372
:103A100054494E4700000000496E76616C6964208D
:103A200053656C656374696F6E0A00FF00010000E6
:103A30004887FF1F1200000000020000A887FF1F38
:103A40004300000000030000A487FF1F00000000E7
:103A5000010309048C87FF1F000000000203090412
:103A60007487FF1F00000000030309045C87FF1F29
:103A70000000000000000000000000000000000046
:103A80004008FE4340A004404408FE4344A00440D4
:103A90000018FE4300C004403000FE433090044054
:103AA0003400FE43349004401C18FE431CC0044004
:103AB0001018FE4310C004400818FE4308C004401C
:103AC0000C18FE430CC004400C10FE430CB0044024
:103AD0001010FE4310B004401810FE4318B004400C
:103AE0001C10FE431CB004401410FE4314B00440EC
:103AF0000418FE4304C004400010FE4300B004401C
:103B00000008FE4300A004400408FE4304A0044053
:103B10000C08FE430CA004400808FE4308A0044023
:103B20001418FE4314C004401818FE4318C0044083
:103B30000410FE4304B004400810FE4308B00440E3
:103B40001400FE43149004404C08FE434CA0044073
:103B50000420FE4304D004402410FE4324B004405B
:103B60002010FE4320B004402810FE4328B004403B
:103B70002C10FE432CB004400020FE4300D0044033
:103B80004808FE4348A004401000FE431090044043
:103B90000000000000000000E92A00000D2B0000DA
:103BA00051240000B12A000049270000E12600004E
:103BB000292600001D2B0000312B0000D529000014
:103BC000D528000085250000112500004D280000A3
:103BD000C124000075240000492400004124000095
:103BE0004924000041240000F52A0000DD2A0000DD
:103BF000526573706F6E73652074696D6564206FB4
:103C00007574000052656365697665643A205B30BF
:103C1000780000002C2030780000000063726343BD
:103C2000616C63203D203078000000002C2063721E
:103C3000635265636569766564203D2030780000D5
:103C4000646573745B0000005D3A20307800FFFF0C
:103C50000D0A00006FF07F030370037813F0800FEC
:103C6000FBD070474252414B45204C4F572F4F4E8F
:103C7000000000000888FF1FF8B500BFF8BC08BCB2
:103C80009E467047B936000035040000ED2C000058
:043C9000F8B500BFC4
:103C9400F038000000000000E8030000000000000D
:103CA4009038000000000000E8030000000000005D
:103CB40001000000FFFFFFFF12011001020000409D
:103CC400C016830475020102030100000C03000006
:103CD40000000000000000000000000000000000E0
:103CE400000000001603550053004200200053005A
:103CF40065007200690061006C0000001803540044
:103D0400650065006E007300790064007500690049
:103D14006E006F000403090409024300020100C09D
:103D2400320904000001020201000524001001050B
:103D3400240101010424020605240600010705826A
:103D44000310004009040100020A000000070503F3
:103D5400024000000705840240000000983B000078
:103D640000000000E803000000000000090A010050
:103D74008C8FFF1F0000000000000000F48AFF1F6A
:103D84005C8BFF1FC48BFF1F0000000000000000BD
:103D9400000000000000000000000000000000001F
:103DA400000000000000000000000000000000000F
:103DB40000000000000000000000000000000000FF
:103DC40000000000000000000000000000000000EF
:103DD40000000000000000000000000000000000DF
:103DE40000000000000000000000000000000000CF
:103DF40000000000000000000000000000000000BF
:103E040000000000000000000000000000000000AE
:103E1400000000000000000000000000000000009E
:103E240001000000000000000E33CDAB34126DE63B
:103E3400ECDE05000B0000000000000000000000A4
:103E4400000000000000000000000000000000006E
:103E5400000000000000000000000000000000005E
:103E6400000000000000000000000000000000004E
:103E7400000000000000000000000000000000003E
:0441A4000888FF1F69
:00000001FF
